{
  "_format": "hh-sol-artifact-1",
  "contractName": "NicepfpArt",
  "sourceName": "contracts/NicepfpArt.sol",
  "abi": [
    {
      "inputs": [],
      "stateMutability": "nonpayable",
      "type": "constructor"
    },
    {
      "anonymous": false,
      "inputs": [
        {
          "indexed": true,
          "internalType": "address",
          "name": "owner",
          "type": "address"
        },
        {
          "indexed": true,
          "internalType": "address",
          "name": "approved",
          "type": "address"
        },
        {
          "indexed": true,
          "internalType": "uint256",
          "name": "tokenId",
          "type": "uint256"
        }
      ],
      "name": "Approval",
      "type": "event"
    },
    {
      "anonymous": false,
      "inputs": [
        {
          "indexed": true,
          "internalType": "address",
          "name": "owner",
          "type": "address"
        },
        {
          "indexed": true,
          "internalType": "address",
          "name": "operator",
          "type": "address"
        },
        {
          "indexed": false,
          "internalType": "bool",
          "name": "approved",
          "type": "bool"
        }
      ],
      "name": "ApprovalForAll",
      "type": "event"
    },
    {
      "anonymous": false,
      "inputs": [
        {
          "indexed": true,
          "internalType": "address",
          "name": "previousOwner",
          "type": "address"
        },
        {
          "indexed": true,
          "internalType": "address",
          "name": "newOwner",
          "type": "address"
        }
      ],
      "name": "OwnershipTransferred",
      "type": "event"
    },
    {
      "anonymous": false,
      "inputs": [
        {
          "indexed": true,
          "internalType": "address",
          "name": "from",
          "type": "address"
        },
        {
          "indexed": true,
          "internalType": "address",
          "name": "to",
          "type": "address"
        },
        {
          "indexed": true,
          "internalType": "uint256",
          "name": "tokenId",
          "type": "uint256"
        }
      ],
      "name": "Transfer",
      "type": "event"
    },
    {
      "inputs": [
        {
          "internalType": "bytes32",
          "name": "message",
          "type": "bytes32"
        },
        {
          "internalType": "bytes",
          "name": "sig",
          "type": "bytes"
        }
      ],
      "name": "_recoverSigner",
      "outputs": [
        {
          "internalType": "address",
          "name": "",
          "type": "address"
        }
      ],
      "stateMutability": "pure",
      "type": "function"
    },
    {
      "inputs": [
        {
          "internalType": "bytes",
          "name": "sig",
          "type": "bytes"
        }
      ],
      "name": "_splitSignature",
      "outputs": [
        {
          "internalType": "uint8",
          "name": "",
          "type": "uint8"
        },
        {
          "internalType": "bytes32",
          "name": "",
          "type": "bytes32"
        },
        {
          "internalType": "bytes32",
          "name": "",
          "type": "bytes32"
        }
      ],
      "stateMutability": "pure",
      "type": "function"
    },
    {
      "inputs": [
        {
          "internalType": "address",
          "name": "to",
          "type": "address"
        },
        {
          "internalType": "uint256",
          "name": "tokenId",
          "type": "uint256"
        }
      ],
      "name": "approve",
      "outputs": [],
      "stateMutability": "nonpayable",
      "type": "function"
    },
    {
      "inputs": [
        {
          "internalType": "address",
          "name": "owner",
          "type": "address"
        }
      ],
      "name": "balanceOf",
      "outputs": [
        {
          "internalType": "uint256",
          "name": "",
          "type": "uint256"
        }
      ],
      "stateMutability": "view",
      "type": "function"
    },
    {
      "inputs": [
        {
          "internalType": "uint256",
          "name": "tokenId",
          "type": "uint256"
        }
      ],
      "name": "burn",
      "outputs": [],
      "stateMutability": "nonpayable",
      "type": "function"
    },
    {
      "inputs": [
        {
          "internalType": "uint256",
          "name": "tokenId",
          "type": "uint256"
        }
      ],
      "name": "getApproved",
      "outputs": [
        {
          "internalType": "address",
          "name": "",
          "type": "address"
        }
      ],
      "stateMutability": "view",
      "type": "function"
    },
    {
      "inputs": [
        {
          "internalType": "address",
          "name": "owner",
          "type": "address"
        },
        {
          "internalType": "address",
          "name": "operator",
          "type": "address"
        }
      ],
      "name": "isApprovedForAll",
      "outputs": [
        {
          "internalType": "bool",
          "name": "",
          "type": "bool"
        }
      ],
      "stateMutability": "view",
      "type": "function"
    },
    {
      "inputs": [],
      "name": "name",
      "outputs": [
        {
          "internalType": "string",
          "name": "",
          "type": "string"
        }
      ],
      "stateMutability": "view",
      "type": "function"
    },
    {
      "inputs": [],
      "name": "owner",
      "outputs": [
        {
          "internalType": "address",
          "name": "",
          "type": "address"
        }
      ],
      "stateMutability": "view",
      "type": "function"
    },
    {
      "inputs": [
        {
          "internalType": "uint256",
          "name": "tokenId",
          "type": "uint256"
        }
      ],
      "name": "ownerOf",
      "outputs": [
        {
          "internalType": "address",
          "name": "",
          "type": "address"
        }
      ],
      "stateMutability": "view",
      "type": "function"
    },
    {
      "inputs": [],
      "name": "renounceOwnership",
      "outputs": [],
      "stateMutability": "nonpayable",
      "type": "function"
    },
    {
      "inputs": [
        {
          "internalType": "address",
          "name": "to",
          "type": "address"
        },
        {
          "internalType": "string",
          "name": "uri",
          "type": "string"
        },
        {
          "internalType": "bytes",
          "name": "signature",
          "type": "bytes"
        }
      ],
      "name": "safeMint",
      "outputs": [],
      "stateMutability": "nonpayable",
      "type": "function"
    },
    {
      "inputs": [
        {
          "internalType": "address",
          "name": "from",
          "type": "address"
        },
        {
          "internalType": "address",
          "name": "to",
          "type": "address"
        },
        {
          "internalType": "uint256",
          "name": "tokenId",
          "type": "uint256"
        }
      ],
      "name": "safeTransferFrom",
      "outputs": [],
      "stateMutability": "nonpayable",
      "type": "function"
    },
    {
      "inputs": [
        {
          "internalType": "address",
          "name": "from",
          "type": "address"
        },
        {
          "internalType": "address",
          "name": "to",
          "type": "address"
        },
        {
          "internalType": "uint256",
          "name": "tokenId",
          "type": "uint256"
        },
        {
          "internalType": "bytes",
          "name": "_data",
          "type": "bytes"
        }
      ],
      "name": "safeTransferFrom",
      "outputs": [],
      "stateMutability": "nonpayable",
      "type": "function"
    },
    {
      "inputs": [
        {
          "internalType": "address",
          "name": "operator",
          "type": "address"
        },
        {
          "internalType": "bool",
          "name": "approved",
          "type": "bool"
        }
      ],
      "name": "setApprovalForAll",
      "outputs": [],
      "stateMutability": "nonpayable",
      "type": "function"
    },
    {
      "inputs": [
        {
          "internalType": "bytes4",
          "name": "interfaceId",
          "type": "bytes4"
        }
      ],
      "name": "supportsInterface",
      "outputs": [
        {
          "internalType": "bool",
          "name": "",
          "type": "bool"
        }
      ],
      "stateMutability": "view",
      "type": "function"
    },
    {
      "inputs": [],
      "name": "symbol",
      "outputs": [
        {
          "internalType": "string",
          "name": "",
          "type": "string"
        }
      ],
      "stateMutability": "view",
      "type": "function"
    },
    {
      "inputs": [
        {
          "internalType": "uint256",
          "name": "index",
          "type": "uint256"
        }
      ],
      "name": "tokenByIndex",
      "outputs": [
        {
          "internalType": "uint256",
          "name": "",
          "type": "uint256"
        }
      ],
      "stateMutability": "view",
      "type": "function"
    },
    {
      "inputs": [
        {
          "internalType": "address",
          "name": "owner",
          "type": "address"
        },
        {
          "internalType": "uint256",
          "name": "index",
          "type": "uint256"
        }
      ],
      "name": "tokenOfOwnerByIndex",
      "outputs": [
        {
          "internalType": "uint256",
          "name": "",
          "type": "uint256"
        }
      ],
      "stateMutability": "view",
      "type": "function"
    },
    {
      "inputs": [
        {
          "internalType": "uint256",
          "name": "tokenId",
          "type": "uint256"
        }
      ],
      "name": "tokenURI",
      "outputs": [
        {
          "internalType": "string",
          "name": "",
          "type": "string"
        }
      ],
      "stateMutability": "view",
      "type": "function"
    },
    {
      "inputs": [],
      "name": "totalSupply",
      "outputs": [
        {
          "internalType": "uint256",
          "name": "",
          "type": "uint256"
        }
      ],
      "stateMutability": "view",
      "type": "function"
    },
    {
      "inputs": [
        {
          "internalType": "address",
          "name": "from",
          "type": "address"
        },
        {
          "internalType": "address",
          "name": "to",
          "type": "address"
        },
        {
          "internalType": "uint256",
          "name": "tokenId",
          "type": "uint256"
        }
      ],
      "name": "transferFrom",
      "outputs": [],
      "stateMutability": "nonpayable",
      "type": "function"
    },
    {
      "inputs": [
        {
          "internalType": "address",
          "name": "newOwner",
          "type": "address"
        }
      ],
      "name": "transferOwnership",
      "outputs": [],
      "stateMutability": "nonpayable",
      "type": "function"
    }
  ],
  "bytecode": "0x60806040523480156200001157600080fd5b506040518060400160405280600b81526020017f6e6963657066702e6172740000000000000000000000000000000000000000008152506040518060400160405280600781526020017f4e49434550465000000000000000000000000000000000000000000000000000815250816000908051906020019062000096929190620001a6565b508060019080519060200190620000af929190620001a6565b505050620000d2620000c6620000d860201b60201c565b620000e060201b60201c565b620002bb565b600033905090565b6000600b60009054906101000a900473ffffffffffffffffffffffffffffffffffffffff16905081600b60006101000a81548173ffffffffffffffffffffffffffffffffffffffff021916908373ffffffffffffffffffffffffffffffffffffffff1602179055508173ffffffffffffffffffffffffffffffffffffffff168173ffffffffffffffffffffffffffffffffffffffff167f8be0079c531659141344cd1fd0a4f28419497f9722a3daafe3b4186f6b6457e060405160405180910390a35050565b828054620001b49062000256565b90600052602060002090601f016020900481019282620001d8576000855562000224565b82601f10620001f357805160ff191683800117855562000224565b8280016001018555821562000224579182015b828111156200022357825182559160200191906001019062000206565b5b50905062000233919062000237565b5090565b5b808211156200025257600081600090555060010162000238565b5090565b600060028204905060018216806200026f57607f821691505b602082108114156200028657620002856200028c565b5b50919050565b7f4e487b7100000000000000000000000000000000000000000000000000000000600052602260045260246000fd5b613ff880620002cb6000396000f3fe608060405234801561001057600080fd5b506004361061014d5760003560e01c80636352211e116100c3578063a22cb4651161007c578063a22cb465146103c6578063b88d4fde146103e2578063c87b56dd146103fe578063e985e9c51461042e578063f2fde38b1461045e578063f6dda9361461047a5761014d565b80636352211e146102ee57806370a082311461031e578063715018a61461034e5780638da5cb5b1461035857806395d89b41146103765780639bd0e9e9146103945761014d565b80631b58b09c116101155780631b58b09c1461020a57806323b872dd1461023a5780632f745c591461025657806342842e0e1461028657806342966c68146102a25780634f6ccce7146102be5761014d565b806301ffc9a71461015257806306fdde0314610182578063081812fc146101a0578063095ea7b3146101d057806318160ddd146101ec575b600080fd5b61016c60048036038101906101679190612bf7565b610496565b604051610179919061318a565b60405180910390f35b61018a6104a8565b60405161019791906131ea565b60405180910390f35b6101ba60048036038101906101b59190612c8a565b61053a565b6040516101c79190613123565b60405180910390f35b6101ea60048036038101906101e59190612b67565b6105bf565b005b6101f46106d7565b60405161020191906134cc565b60405180910390f35b610224600480360381019061021f9190612ba3565b6106e4565b6040516102319190613123565b60405180910390f35b610254600480360381019061024f91906129dd565b610759565b005b610270600480360381019061026b9190612b67565b6107b9565b60405161027d91906134cc565b60405180910390f35b6102a0600480360381019061029b91906129dd565b61085e565b005b6102bc60048036038101906102b79190612c8a565b61087e565b005b6102d860048036038101906102d39190612c8a565b6108da565b6040516102e591906134cc565b60405180910390f35b61030860048036038101906103039190612c8a565b610971565b6040516103159190613123565b60405180910390f35b61033860048036038101906103339190612978565b610a23565b60405161034591906134cc565b60405180910390f35b610356610adb565b005b610360610b63565b60405161036d9190613123565b60405180910390f35b61037e610b8d565b60405161038b91906131ea565b60405180910390f35b6103ae60048036038101906103a99190612c49565b610c1f565b6040516103bd939291906134e7565b60405180910390f35b6103e060048036038101906103db9190612aa7565b610c62565b005b6103fc60048036038101906103f79190612a2c565b610c78565b005b61041860048036038101906104139190612c8a565b610cda565b60405161042591906131ea565b60405180910390f35b610448600480360381019061044391906129a1565b610cec565b604051610455919061318a565b60405180910390f35b61047860048036038101906104739190612978565b610d80565b005b610494600480360381019061048f9190612ae3565b610e78565b005b60006104a182610fb2565b9050919050565b6060600080546104b790613770565b80601f01602080910402602001604051908101604052809291908181526020018280546104e390613770565b80156105305780601f1061050557610100808354040283529160200191610530565b820191906000526020600020905b81548152906001019060200180831161051357829003601f168201915b5050505050905090565b60006105458261102c565b610584576040517f08c379a000000000000000000000000000000000000000000000000000000000815260040161057b906133ec565b60405180910390fd5b6004600083815260200190815260200160002060009054906101000a900473ffffffffffffffffffffffffffffffffffffffff169050919050565b60006105ca82610971565b90508073ffffffffffffffffffffffffffffffffffffffff168373ffffffffffffffffffffffffffffffffffffffff16141561063b576040517f08c379a00000000000000000000000000000000000000000000000000000000081526004016106329061344c565b60405180910390fd5b8073ffffffffffffffffffffffffffffffffffffffff1661065a611098565b73ffffffffffffffffffffffffffffffffffffffff161480610689575061068881610683611098565b610cec565b5b6106c8576040517f08c379a00000000000000000000000000000000000000000000000000000000081526004016106bf9061332c565b60405180910390fd5b6106d283836110a0565b505050565b6000600880549050905090565b6000806000806106f385610c1f565b8093508194508295505050506001868484846040516000815260200160405260405161072294939291906131a5565b6020604051602081039080840390855afa158015610744573d6000803e3d6000fd5b50505060206040510351935050505092915050565b61076a610764611098565b82611159565b6107a9576040517f08c379a00000000000000000000000000000000000000000000000000000000081526004016107a09061346c565b60405180910390fd5b6107b4838383611237565b505050565b60006107c483610a23565b8210610805576040517f08c379a00000000000000000000000000000000000000000000000000000000081526004016107fc9061322c565b60405180910390fd5b600660008473ffffffffffffffffffffffffffffffffffffffff1673ffffffffffffffffffffffffffffffffffffffff168152602001908152602001600020600083815260200190815260200160002054905092915050565b61087983838360405180602001604052806000815250610c78565b505050565b61088f610889611098565b82611159565b6108ce576040517f08c379a00000000000000000000000000000000000000000000000000000000081526004016108c5906134ac565b60405180910390fd5b6108d78161149e565b50565b60006108e46106d7565b8210610925576040517f08c379a000000000000000000000000000000000000000000000000000000000815260040161091c9061348c565b60405180910390fd5b6008828154811061095f577f4e487b7100000000000000000000000000000000000000000000000000000000600052603260045260246000fd5b90600052602060002001549050919050565b6000806002600084815260200190815260200160002060009054906101000a900473ffffffffffffffffffffffffffffffffffffffff169050600073ffffffffffffffffffffffffffffffffffffffff168173ffffffffffffffffffffffffffffffffffffffff161415610a1a576040517f08c379a0000000000000000000000000000000000000000000000000000000008152600401610a119061336c565b60405180910390fd5b80915050919050565b60008073ffffffffffffffffffffffffffffffffffffffff168273ffffffffffffffffffffffffffffffffffffffff161415610a94576040517f08c379a0000000000000000000000000000000000000000000000000000000008152600401610a8b9061334c565b60405180910390fd5b600360008373ffffffffffffffffffffffffffffffffffffffff1673ffffffffffffffffffffffffffffffffffffffff168152602001908152602001600020549050919050565b610ae3611098565b73ffffffffffffffffffffffffffffffffffffffff16610b01610b63565b73ffffffffffffffffffffffffffffffffffffffff1614610b57576040517f08c379a0000000000000000000000000000000000000000000000000000000008152600401610b4e9061340c565b60405180910390fd5b610b6160006114aa565b565b6000600b60009054906101000a900473ffffffffffffffffffffffffffffffffffffffff16905090565b606060018054610b9c90613770565b80601f0160208091040260200160405190810160405280929190818152602001828054610bc890613770565b8015610c155780601f10610bea57610100808354040283529160200191610c15565b820191906000526020600020905b815481529060010190602001808311610bf857829003601f168201915b5050505050905090565b60008060006041845114610c3257600080fd5b60008060006020870151925060408701519150606087015160001a90508083839550955095505050509193909250565b610c74610c6d611098565b8383611570565b5050565b610c89610c83611098565b83611159565b610cc8576040517f08c379a0000000000000000000000000000000000000000000000000000000008152600401610cbf9061346c565b60405180910390fd5b610cd4848484846116dd565b50505050565b6060610ce582611739565b9050919050565b6000600560008473ffffffffffffffffffffffffffffffffffffffff1673ffffffffffffffffffffffffffffffffffffffff16815260200190815260200160002060008373ffffffffffffffffffffffffffffffffffffffff1673ffffffffffffffffffffffffffffffffffffffff16815260200190815260200160002060009054906101000a900460ff16905092915050565b610d88611098565b73ffffffffffffffffffffffffffffffffffffffff16610da6610b63565b73ffffffffffffffffffffffffffffffffffffffff1614610dfc576040517f08c379a0000000000000000000000000000000000000000000000000000000008152600401610df39061340c565b60405180910390fd5b600073ffffffffffffffffffffffffffffffffffffffff168173ffffffffffffffffffffffffffffffffffffffff161415610e6c576040517f08c379a0000000000000000000000000000000000000000000000000000000008152600401610e639061326c565b60405180910390fd5b610e75816114aa565b50565b610e80610b63565b73ffffffffffffffffffffffffffffffffffffffff16610f0a84604051602001610eaa91906130c6565b6040516020818303038152906040528051906020012084848080601f016020809104026020016040519081016040528093929190818152602001838380828437600081840152601f19601f820116905080830192505050505050506106e4565b73ffffffffffffffffffffffffffffffffffffffff1614610f60576040517f08c379a0000000000000000000000000000000000000000000000000000000008152600401610f579061320c565b60405180910390fd5b6000610f6c600c61188b565b9050610f78600c611899565b610f8285826118af565b610fab8185604051602001610f979190613101565b6040516020818303038152906040526118cd565b5050505050565b60007f780e9d63000000000000000000000000000000000000000000000000000000007bffffffffffffffffffffffffffffffffffffffffffffffffffffffff1916827bffffffffffffffffffffffffffffffffffffffffffffffffffffffff19161480611025575061102482611941565b5b9050919050565b60008073ffffffffffffffffffffffffffffffffffffffff166002600084815260200190815260200160002060009054906101000a900473ffffffffffffffffffffffffffffffffffffffff1673ffffffffffffffffffffffffffffffffffffffff1614159050919050565b600033905090565b816004600083815260200190815260200160002060006101000a81548173ffffffffffffffffffffffffffffffffffffffff021916908373ffffffffffffffffffffffffffffffffffffffff160217905550808273ffffffffffffffffffffffffffffffffffffffff1661111383610971565b73ffffffffffffffffffffffffffffffffffffffff167f8c5be1e5ebec7d5bd14f71427d1e84f3dd0314c0f7b2291e5b200ac8c7c3b92560405160405180910390a45050565b60006111648261102c565b6111a3576040517f08c379a000000000000000000000000000000000000000000000000000000000815260040161119a9061330c565b60405180910390fd5b60006111ae83610971565b90508073ffffffffffffffffffffffffffffffffffffffff168473ffffffffffffffffffffffffffffffffffffffff1614806111f057506111ef8185610cec565b5b8061122e57508373ffffffffffffffffffffffffffffffffffffffff166112168461053a565b73ffffffffffffffffffffffffffffffffffffffff16145b91505092915050565b8273ffffffffffffffffffffffffffffffffffffffff1661125782610971565b73ffffffffffffffffffffffffffffffffffffffff16146112ad576040517f08c379a00000000000000000000000000000000000000000000000000000000081526004016112a49061328c565b60405180910390fd5b600073ffffffffffffffffffffffffffffffffffffffff168273ffffffffffffffffffffffffffffffffffffffff16141561131d576040517f08c379a0000000000000000000000000000000000000000000000000000000008152600401611314906132cc565b60405180910390fd5b611328838383611a23565b6113336000826110a0565b6001600360008573ffffffffffffffffffffffffffffffffffffffff1673ffffffffffffffffffffffffffffffffffffffff1681526020019081526020016000206000828254611383919061366f565b925050819055506001600360008473ffffffffffffffffffffffffffffffffffffffff1673ffffffffffffffffffffffffffffffffffffffff16815260200190815260200160002060008282546113da91906135e8565b92505081905550816002600083815260200190815260200160002060006101000a81548173ffffffffffffffffffffffffffffffffffffffff021916908373ffffffffffffffffffffffffffffffffffffffff160217905550808273ffffffffffffffffffffffffffffffffffffffff168473ffffffffffffffffffffffffffffffffffffffff167fddf252ad1be2c89b69c2b068fc378daa952ba7f163c4a11628f55a4df523b3ef60405160405180910390a4611499838383611a33565b505050565b6114a781611a38565b50565b6000600b60009054906101000a900473ffffffffffffffffffffffffffffffffffffffff16905081600b60006101000a81548173ffffffffffffffffffffffffffffffffffffffff021916908373ffffffffffffffffffffffffffffffffffffffff1602179055508173ffffffffffffffffffffffffffffffffffffffff168173ffffffffffffffffffffffffffffffffffffffff167f8be0079c531659141344cd1fd0a4f28419497f9722a3daafe3b4186f6b6457e060405160405180910390a35050565b8173ffffffffffffffffffffffffffffffffffffffff168373ffffffffffffffffffffffffffffffffffffffff1614156115df576040517f08c379a00000000000000000000000000000000000000000000000000000000081526004016115d6906132ec565b60405180910390fd5b80600560008573ffffffffffffffffffffffffffffffffffffffff1673ffffffffffffffffffffffffffffffffffffffff16815260200190815260200160002060008473ffffffffffffffffffffffffffffffffffffffff1673ffffffffffffffffffffffffffffffffffffffff16815260200190815260200160002060006101000a81548160ff0219169083151502179055508173ffffffffffffffffffffffffffffffffffffffff168373ffffffffffffffffffffffffffffffffffffffff167f17307eab39ab6107e8899845ad3d59bd9653f200f220920489ca2b5937696c31836040516116d0919061318a565b60405180910390a3505050565b6116e8848484611237565b6116f484848484611a8b565b611733576040517f08c379a000000000000000000000000000000000000000000000000000000000815260040161172a9061324c565b60405180910390fd5b50505050565b60606117448261102c565b611783576040517f08c379a000000000000000000000000000000000000000000000000000000000815260040161177a906133cc565b60405180910390fd5b6000600a600084815260200190815260200160002080546117a390613770565b80601f01602080910402602001604051908101604052809291908181526020018280546117cf90613770565b801561181c5780601f106117f15761010080835404028352916020019161181c565b820191906000526020600020905b8154815290600101906020018083116117ff57829003601f168201915b50505050509050600061182d611c22565b9050600081511415611843578192505050611886565b6000825111156118785780826040516020016118609291906130dd565b60405160208183030381529060405292505050611886565b61188184611c39565b925050505b919050565b600081600001549050919050565b6001816000016000828254019250508190555050565b6118c9828260405180602001604052806000815250611ce0565b5050565b6118d68261102c565b611915576040517f08c379a000000000000000000000000000000000000000000000000000000000815260040161190c9061338c565b60405180910390fd5b80600a6000848152602001908152602001600020908051906020019061193c9291906126fd565b505050565b60007f80ac58cd000000000000000000000000000000000000000000000000000000007bffffffffffffffffffffffffffffffffffffffffffffffffffffffff1916827bffffffffffffffffffffffffffffffffffffffffffffffffffffffff19161480611a0c57507f5b5e139f000000000000000000000000000000000000000000000000000000007bffffffffffffffffffffffffffffffffffffffffffffffffffffffff1916827bffffffffffffffffffffffffffffffffffffffffffffffffffffffff1916145b80611a1c5750611a1b82611d3b565b5b9050919050565b611a2e838383611da5565b505050565b505050565b611a4181611eb9565b6000600a60008381526020019081526020016000208054611a6190613770565b905014611a8857600a60008281526020019081526020016000206000611a879190612783565b5b50565b6000611aac8473ffffffffffffffffffffffffffffffffffffffff16611fd6565b15611c15578373ffffffffffffffffffffffffffffffffffffffff1663150b7a02611ad5611098565b8786866040518563ffffffff1660e01b8152600401611af7949392919061313e565b602060405180830381600087803b158015611b1157600080fd5b505af1925050508015611b4257506040513d601f19601f82011682018060405250810190611b3f9190612c20565b60015b611bc5573d8060008114611b72576040519150601f19603f3d011682016040523d82523d6000602084013e611b77565b606091505b50600081511415611bbd576040517f08c379a0000000000000000000000000000000000000000000000000000000008152600401611bb49061324c565b60405180910390fd5b805181602001fd5b63150b7a0260e01b7bffffffffffffffffffffffffffffffffffffffffffffffffffffffff1916817bffffffffffffffffffffffffffffffffffffffffffffffffffffffff191614915050611c1a565b600190505b949350505050565b606060405180602001604052806000815250905090565b6060611c448261102c565b611c83576040517f08c379a0000000000000000000000000000000000000000000000000000000008152600401611c7a9061342c565b60405180910390fd5b6000611c8d611c22565b90506000815111611cad5760405180602001604052806000815250611cd8565b80611cb784611ff9565b604051602001611cc89291906130dd565b6040516020818303038152906040525b915050919050565b611cea83836121a6565b611cf76000848484611a8b565b611d36576040517f08c379a0000000000000000000000000000000000000000000000000000000008152600401611d2d9061324c565b60405180910390fd5b505050565b60007f01ffc9a7000000000000000000000000000000000000000000000000000000007bffffffffffffffffffffffffffffffffffffffffffffffffffffffff1916827bffffffffffffffffffffffffffffffffffffffffffffffffffffffff1916149050919050565b611db0838383612380565b600073ffffffffffffffffffffffffffffffffffffffff168373ffffffffffffffffffffffffffffffffffffffff161415611df357611dee81612385565b611e32565b8173ffffffffffffffffffffffffffffffffffffffff168373ffffffffffffffffffffffffffffffffffffffff1614611e3157611e3083826123ce565b5b5b600073ffffffffffffffffffffffffffffffffffffffff168273ffffffffffffffffffffffffffffffffffffffff161415611e7557611e708161253b565b611eb4565b8273ffffffffffffffffffffffffffffffffffffffff168273ffffffffffffffffffffffffffffffffffffffff1614611eb357611eb2828261267e565b5b5b505050565b6000611ec482610971565b9050611ed281600084611a23565b611edd6000836110a0565b6001600360008373ffffffffffffffffffffffffffffffffffffffff1673ffffffffffffffffffffffffffffffffffffffff1681526020019081526020016000206000828254611f2d919061366f565b925050819055506002600083815260200190815260200160002060006101000a81549073ffffffffffffffffffffffffffffffffffffffff021916905581600073ffffffffffffffffffffffffffffffffffffffff168273ffffffffffffffffffffffffffffffffffffffff167fddf252ad1be2c89b69c2b068fc378daa952ba7f163c4a11628f55a4df523b3ef60405160405180910390a4611fd281600084611a33565b5050565b6000808273ffffffffffffffffffffffffffffffffffffffff163b119050919050565b60606000821415612041576040518060400160405280600181526020017f300000000000000000000000000000000000000000000000000000000000000081525090506121a1565b600082905060005b6000821461207357808061205c906137d3565b915050600a8261206c919061363e565b9150612049565b60008167ffffffffffffffff8111156120b5577f4e487b7100000000000000000000000000000000000000000000000000000000600052604160045260246000fd5b6040519080825280601f01601f1916602001820160405280156120e75781602001600182028036833780820191505090505b5090505b6000851461219a57600182612100919061366f565b9150600a8561210f919061381c565b603061211b91906135e8565b60f81b818381518110612157577f4e487b7100000000000000000000000000000000000000000000000000000000600052603260045260246000fd5b60200101907effffffffffffffffffffffffffffffffffffffffffffffffffffffffffffff1916908160001a905350600a85612193919061363e565b94506120eb565b8093505050505b919050565b600073ffffffffffffffffffffffffffffffffffffffff168273ffffffffffffffffffffffffffffffffffffffff161415612216576040517f08c379a000000000000000000000000000000000000000000000000000000000815260040161220d906133ac565b60405180910390fd5b61221f8161102c565b1561225f576040517f08c379a0000000000000000000000000000000000000000000000000000000008152600401612256906132ac565b60405180910390fd5b61226b60008383611a23565b6001600360008473ffffffffffffffffffffffffffffffffffffffff1673ffffffffffffffffffffffffffffffffffffffff16815260200190815260200160002060008282546122bb91906135e8565b92505081905550816002600083815260200190815260200160002060006101000a81548173ffffffffffffffffffffffffffffffffffffffff021916908373ffffffffffffffffffffffffffffffffffffffff160217905550808273ffffffffffffffffffffffffffffffffffffffff16600073ffffffffffffffffffffffffffffffffffffffff167fddf252ad1be2c89b69c2b068fc378daa952ba7f163c4a11628f55a4df523b3ef60405160405180910390a461237c60008383611a33565b5050565b505050565b6008805490506009600083815260200190815260200160002081905550600881908060018154018082558091505060019003906000526020600020016000909190919091505550565b600060016123db84610a23565b6123e5919061366f565b90506000600760008481526020019081526020016000205490508181146124ca576000600660008673ffffffffffffffffffffffffffffffffffffffff1673ffffffffffffffffffffffffffffffffffffffff168152602001908152602001600020600084815260200190815260200160002054905080600660008773ffffffffffffffffffffffffffffffffffffffff1673ffffffffffffffffffffffffffffffffffffffff168152602001908152602001600020600084815260200190815260200160002081905550816007600083815260200190815260200160002081905550505b6007600084815260200190815260200160002060009055600660008573ffffffffffffffffffffffffffffffffffffffff1673ffffffffffffffffffffffffffffffffffffffff16815260200190815260200160002060008381526020019081526020016000206000905550505050565b6000600160088054905061254f919061366f565b90506000600960008481526020019081526020016000205490506000600883815481106125a5577f4e487b7100000000000000000000000000000000000000000000000000000000600052603260045260246000fd5b9060005260206000200154905080600883815481106125ed577f4e487b7100000000000000000000000000000000000000000000000000000000600052603260045260246000fd5b906000526020600020018190555081600960008381526020019081526020016000208190555060096000858152602001908152602001600020600090556008805480612662577f4e487b7100000000000000000000000000000000000000000000000000000000600052603160045260246000fd5b6001900381819060005260206000200160009055905550505050565b600061268983610a23565b905081600660008573ffffffffffffffffffffffffffffffffffffffff1673ffffffffffffffffffffffffffffffffffffffff168152602001908152602001600020600083815260200190815260200160002081905550806007600084815260200190815260200160002081905550505050565b82805461270990613770565b90600052602060002090601f01602090048101928261272b5760008555612772565b82601f1061274457805160ff1916838001178555612772565b82800160010185558215612772579182015b82811115612771578251825591602001919060010190612756565b5b50905061277f91906127c3565b5090565b50805461278f90613770565b6000825580601f106127a157506127c0565b601f0160209004906000526020600020908101906127bf91906127c3565b5b50565b5b808211156127dc5760008160009055506001016127c4565b5090565b60006127f36127ee84613543565b61351e565b90508281526020810184848401111561280b57600080fd5b61281684828561372e565b509392505050565b600061283161282c84613574565b61351e565b90508281526020810184848401111561284957600080fd5b61285484828561372e565b509392505050565b60008135905061286b81613f4f565b92915050565b60008135905061288081613f66565b92915050565b60008135905061289581613f7d565b92915050565b6000813590506128aa81613f94565b92915050565b6000815190506128bf81613f94565b92915050565b60008083601f8401126128d757600080fd5b8235905067ffffffffffffffff8111156128f057600080fd5b60208301915083600182028301111561290857600080fd5b9250929050565b600082601f83011261292057600080fd5b81356129308482602086016127e0565b91505092915050565b600082601f83011261294a57600080fd5b813561295a84826020860161281e565b91505092915050565b60008135905061297281613fab565b92915050565b60006020828403121561298a57600080fd5b60006129988482850161285c565b91505092915050565b600080604083850312156129b457600080fd5b60006129c28582860161285c565b92505060206129d38582860161285c565b9150509250929050565b6000806000606084860312156129f257600080fd5b6000612a008682870161285c565b9350506020612a118682870161285c565b9250506040612a2286828701612963565b9150509250925092565b60008060008060808587031215612a4257600080fd5b6000612a508782880161285c565b9450506020612a618782880161285c565b9350506040612a7287828801612963565b925050606085013567ffffffffffffffff811115612a8f57600080fd5b612a9b8782880161290f565b91505092959194509250565b60008060408385031215612aba57600080fd5b6000612ac88582860161285c565b9250506020612ad985828601612871565b9150509250929050565b60008060008060608587031215612af957600080fd5b6000612b078782880161285c565b945050602085013567ffffffffffffffff811115612b2457600080fd5b612b3087828801612939565b935050604085013567ffffffffffffffff811115612b4d57600080fd5b612b59878288016128c5565b925092505092959194509250565b60008060408385031215612b7a57600080fd5b6000612b888582860161285c565b9250506020612b9985828601612963565b9150509250929050565b60008060408385031215612bb657600080fd5b6000612bc485828601612886565b925050602083013567ffffffffffffffff811115612be157600080fd5b612bed8582860161290f565b9150509250929050565b600060208284031215612c0957600080fd5b6000612c178482850161289b565b91505092915050565b600060208284031215612c3257600080fd5b6000612c40848285016128b0565b91505092915050565b600060208284031215612c5b57600080fd5b600082013567ffffffffffffffff811115612c7557600080fd5b612c818482850161290f565b91505092915050565b600060208284031215612c9c57600080fd5b6000612caa84828501612963565b91505092915050565b612cbc816136a3565b82525050565b612ccb816136b5565b82525050565b612cda816136c1565b82525050565b6000612ceb826135a5565b612cf581856135bb565b9350612d0581856020860161373d565b612d0e81613909565b840191505092915050565b6000612d24826135b0565b612d2e81856135cc565b9350612d3e81856020860161373d565b612d4781613909565b840191505092915050565b6000612d5d826135b0565b612d6781856135dd565b9350612d7781856020860161373d565b80840191505092915050565b6000612d90600c836135cc565b9150612d9b8261391a565b602082019050919050565b6000612db3602b836135cc565b9150612dbe82613943565b604082019050919050565b6000612dd66032836135cc565b9150612de182613992565b604082019050919050565b6000612df96026836135cc565b9150612e04826139e1565b604082019050919050565b6000612e1c6025836135cc565b9150612e2782613a30565b604082019050919050565b6000612e3f601c836135cc565b9150612e4a82613a7f565b602082019050919050565b6000612e626024836135cc565b9150612e6d82613aa8565b604082019050919050565b6000612e856019836135cc565b9150612e9082613af7565b602082019050919050565b6000612ea8602c836135cc565b9150612eb382613b20565b604082019050919050565b6000612ecb6038836135cc565b9150612ed682613b6f565b604082019050919050565b6000612eee6015836135dd565b9150612ef982613bbe565b601582019050919050565b6000612f11602a836135cc565b9150612f1c82613be7565b604082019050919050565b6000612f346029836135cc565b9150612f3f82613c36565b604082019050919050565b6000612f57602e836135cc565b9150612f6282613c85565b604082019050919050565b6000612f7a6020836135cc565b9150612f8582613cd4565b602082019050919050565b6000612f9d6031836135cc565b9150612fa882613cfd565b604082019050919050565b6000612fc0602c836135cc565b9150612fcb82613d4c565b604082019050919050565b6000612fe36020836135cc565b9150612fee82613d9b565b602082019050919050565b6000613006602f836135cc565b915061301182613dc4565b604082019050919050565b60006130296021836135cc565b915061303482613e13565b604082019050919050565b600061304c6031836135cc565b915061305782613e62565b604082019050919050565b600061306f602c836135cc565b915061307a82613eb1565b604082019050919050565b60006130926030836135cc565b915061309d82613f00565b604082019050919050565b6130b181613717565b82525050565b6130c081613721565b82525050565b60006130d28284612d52565b915081905092915050565b60006130e98285612d52565b91506130f58284612d52565b91508190509392505050565b600061310c82612ee1565b91506131188284612d52565b915081905092915050565b60006020820190506131386000830184612cb3565b92915050565b60006080820190506131536000830187612cb3565b6131606020830186612cb3565b61316d60408301856130a8565b818103606083015261317f8184612ce0565b905095945050505050565b600060208201905061319f6000830184612cc2565b92915050565b60006080820190506131ba6000830187612cd1565b6131c760208301866130b7565b6131d46040830185612cd1565b6131e16060830184612cd1565b95945050505050565b600060208201905081810360008301526132048184612d19565b905092915050565b6000602082019050818103600083015261322581612d83565b9050919050565b6000602082019050818103600083015261324581612da6565b9050919050565b6000602082019050818103600083015261326581612dc9565b9050919050565b6000602082019050818103600083015261328581612dec565b9050919050565b600060208201905081810360008301526132a581612e0f565b9050919050565b600060208201905081810360008301526132c581612e32565b9050919050565b600060208201905081810360008301526132e581612e55565b9050919050565b6000602082019050818103600083015261330581612e78565b9050919050565b6000602082019050818103600083015261332581612e9b565b9050919050565b6000602082019050818103600083015261334581612ebe565b9050919050565b6000602082019050818103600083015261336581612f04565b9050919050565b6000602082019050818103600083015261338581612f27565b9050919050565b600060208201905081810360008301526133a581612f4a565b9050919050565b600060208201905081810360008301526133c581612f6d565b9050919050565b600060208201905081810360008301526133e581612f90565b9050919050565b6000602082019050818103600083015261340581612fb3565b9050919050565b6000602082019050818103600083015261342581612fd6565b9050919050565b6000602082019050818103600083015261344581612ff9565b9050919050565b600060208201905081810360008301526134658161301c565b9050919050565b600060208201905081810360008301526134858161303f565b9050919050565b600060208201905081810360008301526134a581613062565b9050919050565b600060208201905081810360008301526134c581613085565b9050919050565b60006020820190506134e160008301846130a8565b92915050565b60006060820190506134fc60008301866130b7565b6135096020830185612cd1565b6135166040830184612cd1565b949350505050565b6000613528613539565b905061353482826137a2565b919050565b6000604051905090565b600067ffffffffffffffff82111561355e5761355d6138da565b5b61356782613909565b9050602081019050919050565b600067ffffffffffffffff82111561358f5761358e6138da565b5b61359882613909565b9050602081019050919050565b600081519050919050565b600081519050919050565b600082825260208201905092915050565b600082825260208201905092915050565b600081905092915050565b60006135f382613717565b91506135fe83613717565b9250827fffffffffffffffffffffffffffffffffffffffffffffffffffffffffffffffff038211156136335761363261384d565b5b828201905092915050565b600061364982613717565b915061365483613717565b9250826136645761366361387c565b5b828204905092915050565b600061367a82613717565b915061368583613717565b9250828210156136985761369761384d565b5b828203905092915050565b60006136ae826136f7565b9050919050565b60008115159050919050565b6000819050919050565b60007fffffffff0000000000000000000000000000000000000000000000000000000082169050919050565b600073ffffffffffffffffffffffffffffffffffffffff82169050919050565b6000819050919050565b600060ff82169050919050565b82818337600083830152505050565b60005b8381101561375b578082015181840152602081019050613740565b8381111561376a576000848401525b50505050565b6000600282049050600182168061378857607f821691505b6020821081141561379c5761379b6138ab565b5b50919050565b6137ab82613909565b810181811067ffffffffffffffff821117156137ca576137c96138da565b5b80604052505050565b60006137de82613717565b91507fffffffffffffffffffffffffffffffffffffffffffffffffffffffffffffffff8214156138115761381061384d565b5b600182019050919050565b600061382782613717565b915061383283613717565b9250826138425761384161387c565b5b828206905092915050565b7f4e487b7100000000000000000000000000000000000000000000000000000000600052601160045260246000fd5b7f4e487b7100000000000000000000000000000000000000000000000000000000600052601260045260246000fd5b7f4e487b7100000000000000000000000000000000000000000000000000000000600052602260045260246000fd5b7f4e487b7100000000000000000000000000000000000000000000000000000000600052604160045260246000fd5b6000601f19601f8301169050919050565b7f556e617574686f72697a65640000000000000000000000000000000000000000600082015250565b7f455243373231456e756d657261626c653a206f776e657220696e646578206f7560008201527f74206f6620626f756e6473000000000000000000000000000000000000000000602082015250565b7f4552433732313a207472616e7366657220746f206e6f6e20455243373231526560008201527f63656976657220696d706c656d656e7465720000000000000000000000000000602082015250565b7f4f776e61626c653a206e6577206f776e657220697320746865207a65726f206160008201527f6464726573730000000000000000000000000000000000000000000000000000602082015250565b7f4552433732313a207472616e736665722066726f6d20696e636f72726563742060008201527f6f776e6572000000000000000000000000000000000000000000000000000000602082015250565b7f4552433732313a20746f6b656e20616c7265616479206d696e74656400000000600082015250565b7f4552433732313a207472616e7366657220746f20746865207a65726f2061646460008201527f7265737300000000000000000000000000000000000000000000000000000000602082015250565b7f4552433732313a20617070726f766520746f2063616c6c657200000000000000600082015250565b7f4552433732313a206f70657261746f7220717565727920666f72206e6f6e657860008201527f697374656e7420746f6b656e0000000000000000000000000000000000000000602082015250565b7f4552433732313a20617070726f76652063616c6c6572206973206e6f74206f7760008201527f6e6572206e6f7220617070726f76656420666f7220616c6c0000000000000000602082015250565b7f68747470733a2f2f697066732e696f2f697066732f0000000000000000000000600082015250565b7f4552433732313a2062616c616e636520717565727920666f7220746865207a6560008201527f726f206164647265737300000000000000000000000000000000000000000000602082015250565b7f4552433732313a206f776e657220717565727920666f72206e6f6e657869737460008201527f656e7420746f6b656e0000000000000000000000000000000000000000000000602082015250565b7f45524337323155524953746f726167653a2055524920736574206f66206e6f6e60008201527f6578697374656e7420746f6b656e000000000000000000000000000000000000602082015250565b7f4552433732313a206d696e7420746f20746865207a65726f2061646472657373600082015250565b7f45524337323155524953746f726167653a2055524920717565727920666f722060008201527f6e6f6e6578697374656e7420746f6b656e000000000000000000000000000000602082015250565b7f4552433732313a20617070726f76656420717565727920666f72206e6f6e657860008201527f697374656e7420746f6b656e0000000000000000000000000000000000000000602082015250565b7f4f776e61626c653a2063616c6c6572206973206e6f7420746865206f776e6572600082015250565b7f4552433732314d657461646174613a2055524920717565727920666f72206e6f60008201527f6e6578697374656e7420746f6b656e0000000000000000000000000000000000602082015250565b7f4552433732313a20617070726f76616c20746f2063757272656e74206f776e6560008201527f7200000000000000000000000000000000000000000000000000000000000000602082015250565b7f4552433732313a207472616e736665722063616c6c6572206973206e6f74206f60008201527f776e6572206e6f7220617070726f766564000000000000000000000000000000602082015250565b7f455243373231456e756d657261626c653a20676c6f62616c20696e646578206f60008201527f7574206f6620626f756e64730000000000000000000000000000000000000000602082015250565b7f4552433732314275726e61626c653a2063616c6c6572206973206e6f74206f7760008201527f6e6572206e6f7220617070726f76656400000000000000000000000000000000602082015250565b613f58816136a3565b8114613f6357600080fd5b50565b613f6f816136b5565b8114613f7a57600080fd5b50565b613f86816136c1565b8114613f9157600080fd5b50565b613f9d816136cb565b8114613fa857600080fd5b50565b613fb481613717565b8114613fbf57600080fd5b5056fea2646970667358221220d35ae70bb54e32c66f6379a90533cbc4a5ea255fb3f466a8dd615a91af979ee664736f6c63430008040033",
  "linkReferences": {},
  "deployedLinkReferences": {}
}