{
  "_format": "hh-sol-artifact-1",
  "contractName": "Nicepfp",
  "sourceName": "contracts/Nicepfp.sol",
  "abi": [
    {
      "inputs": [],
      "stateMutability": "nonpayable",
      "type": "constructor"
    },
    {
      "anonymous": false,
      "inputs": [
        {
          "indexed": true,
          "internalType": "address",
          "name": "owner",
          "type": "address"
        },
        {
          "indexed": true,
          "internalType": "address",
          "name": "approved",
          "type": "address"
        },
        {
          "indexed": true,
          "internalType": "uint256",
          "name": "tokenId",
          "type": "uint256"
        }
      ],
      "name": "Approval",
      "type": "event"
    },
    {
      "anonymous": false,
      "inputs": [
        {
          "indexed": true,
          "internalType": "address",
          "name": "owner",
          "type": "address"
        },
        {
          "indexed": true,
          "internalType": "address",
          "name": "operator",
          "type": "address"
        },
        {
          "indexed": false,
          "internalType": "bool",
          "name": "approved",
          "type": "bool"
        }
      ],
      "name": "ApprovalForAll",
      "type": "event"
    },
    {
      "anonymous": false,
      "inputs": [
        {
          "indexed": true,
          "internalType": "address",
          "name": "previousOwner",
          "type": "address"
        },
        {
          "indexed": true,
          "internalType": "address",
          "name": "newOwner",
          "type": "address"
        }
      ],
      "name": "OwnershipTransferred",
      "type": "event"
    },
    {
      "anonymous": false,
      "inputs": [
        {
          "indexed": false,
          "internalType": "address",
          "name": "account",
          "type": "address"
        }
      ],
      "name": "Paused",
      "type": "event"
    },
    {
      "anonymous": false,
      "inputs": [
        {
          "indexed": true,
          "internalType": "address",
          "name": "from",
          "type": "address"
        },
        {
          "indexed": true,
          "internalType": "address",
          "name": "to",
          "type": "address"
        },
        {
          "indexed": true,
          "internalType": "uint256",
          "name": "tokenId",
          "type": "uint256"
        }
      ],
      "name": "Transfer",
      "type": "event"
    },
    {
      "anonymous": false,
      "inputs": [
        {
          "indexed": false,
          "internalType": "address",
          "name": "account",
          "type": "address"
        }
      ],
      "name": "Unpaused",
      "type": "event"
    },
    {
      "inputs": [
        {
          "internalType": "address",
          "name": "to",
          "type": "address"
        },
        {
          "internalType": "uint256",
          "name": "tokenId",
          "type": "uint256"
        }
      ],
      "name": "approve",
      "outputs": [],
      "stateMutability": "nonpayable",
      "type": "function"
    },
    {
      "inputs": [
        {
          "internalType": "address",
          "name": "owner",
          "type": "address"
        }
      ],
      "name": "balanceOf",
      "outputs": [
        {
          "internalType": "uint256",
          "name": "",
          "type": "uint256"
        }
      ],
      "stateMutability": "view",
      "type": "function"
    },
    {
      "inputs": [
        {
          "internalType": "uint256",
          "name": "tokenId",
          "type": "uint256"
        }
      ],
      "name": "burn",
      "outputs": [],
      "stateMutability": "nonpayable",
      "type": "function"
    },
    {
      "inputs": [
        {
          "internalType": "uint256",
          "name": "tokenId",
          "type": "uint256"
        }
      ],
      "name": "getApproved",
      "outputs": [
        {
          "internalType": "address",
          "name": "",
          "type": "address"
        }
      ],
      "stateMutability": "view",
      "type": "function"
    },
    {
      "inputs": [
        {
          "internalType": "address",
          "name": "owner",
          "type": "address"
        },
        {
          "internalType": "address",
          "name": "operator",
          "type": "address"
        }
      ],
      "name": "isApprovedForAll",
      "outputs": [
        {
          "internalType": "bool",
          "name": "",
          "type": "bool"
        }
      ],
      "stateMutability": "view",
      "type": "function"
    },
    {
      "inputs": [],
      "name": "name",
      "outputs": [
        {
          "internalType": "string",
          "name": "",
          "type": "string"
        }
      ],
      "stateMutability": "view",
      "type": "function"
    },
    {
      "inputs": [],
      "name": "owner",
      "outputs": [
        {
          "internalType": "address",
          "name": "",
          "type": "address"
        }
      ],
      "stateMutability": "view",
      "type": "function"
    },
    {
      "inputs": [
        {
          "internalType": "uint256",
          "name": "tokenId",
          "type": "uint256"
        }
      ],
      "name": "ownerOf",
      "outputs": [
        {
          "internalType": "address",
          "name": "",
          "type": "address"
        }
      ],
      "stateMutability": "view",
      "type": "function"
    },
    {
      "inputs": [],
      "name": "pause",
      "outputs": [],
      "stateMutability": "nonpayable",
      "type": "function"
    },
    {
      "inputs": [],
      "name": "paused",
      "outputs": [
        {
          "internalType": "bool",
          "name": "",
          "type": "bool"
        }
      ],
      "stateMutability": "view",
      "type": "function"
    },
    {
      "inputs": [],
      "name": "renounceOwnership",
      "outputs": [],
      "stateMutability": "nonpayable",
      "type": "function"
    },
    {
      "inputs": [
        {
          "internalType": "address",
          "name": "to",
          "type": "address"
        },
        {
          "internalType": "string",
          "name": "uri",
          "type": "string"
        }
      ],
      "name": "safeMint",
      "outputs": [],
      "stateMutability": "nonpayable",
      "type": "function"
    },
    {
      "inputs": [
        {
          "internalType": "address",
          "name": "from",
          "type": "address"
        },
        {
          "internalType": "address",
          "name": "to",
          "type": "address"
        },
        {
          "internalType": "uint256",
          "name": "tokenId",
          "type": "uint256"
        }
      ],
      "name": "safeTransferFrom",
      "outputs": [],
      "stateMutability": "nonpayable",
      "type": "function"
    },
    {
      "inputs": [
        {
          "internalType": "address",
          "name": "from",
          "type": "address"
        },
        {
          "internalType": "address",
          "name": "to",
          "type": "address"
        },
        {
          "internalType": "uint256",
          "name": "tokenId",
          "type": "uint256"
        },
        {
          "internalType": "bytes",
          "name": "_data",
          "type": "bytes"
        }
      ],
      "name": "safeTransferFrom",
      "outputs": [],
      "stateMutability": "nonpayable",
      "type": "function"
    },
    {
      "inputs": [
        {
          "internalType": "address",
          "name": "operator",
          "type": "address"
        },
        {
          "internalType": "bool",
          "name": "approved",
          "type": "bool"
        }
      ],
      "name": "setApprovalForAll",
      "outputs": [],
      "stateMutability": "nonpayable",
      "type": "function"
    },
    {
      "inputs": [
        {
          "internalType": "bytes4",
          "name": "interfaceId",
          "type": "bytes4"
        }
      ],
      "name": "supportsInterface",
      "outputs": [
        {
          "internalType": "bool",
          "name": "",
          "type": "bool"
        }
      ],
      "stateMutability": "view",
      "type": "function"
    },
    {
      "inputs": [],
      "name": "symbol",
      "outputs": [
        {
          "internalType": "string",
          "name": "",
          "type": "string"
        }
      ],
      "stateMutability": "view",
      "type": "function"
    },
    {
      "inputs": [
        {
          "internalType": "uint256",
          "name": "tokenId",
          "type": "uint256"
        }
      ],
      "name": "tokenURI",
      "outputs": [
        {
          "internalType": "string",
          "name": "",
          "type": "string"
        }
      ],
      "stateMutability": "view",
      "type": "function"
    },
    {
      "inputs": [
        {
          "internalType": "address",
          "name": "from",
          "type": "address"
        },
        {
          "internalType": "address",
          "name": "to",
          "type": "address"
        },
        {
          "internalType": "uint256",
          "name": "tokenId",
          "type": "uint256"
        }
      ],
      "name": "transferFrom",
      "outputs": [],
      "stateMutability": "nonpayable",
      "type": "function"
    },
    {
      "inputs": [
        {
          "internalType": "address",
          "name": "newOwner",
          "type": "address"
        }
      ],
      "name": "transferOwnership",
      "outputs": [],
      "stateMutability": "nonpayable",
      "type": "function"
    },
    {
      "inputs": [],
      "name": "unpause",
      "outputs": [],
      "stateMutability": "nonpayable",
      "type": "function"
    }
  ],
  "bytecode": "0x60806040523480156200001157600080fd5b50604080518082018252600781526604e6963657066760cc1b60208083019182528351808501909452600484526304e5046560e41b9084015281519192916200005d91600091620000eb565b50805162000073906001906020840190620000eb565b50506007805460ff19169055506200008b3362000091565b620001ce565b600780546001600160a01b03838116610100818102610100600160a81b031985161790945560405193909204169182907f8be0079c531659141344cd1fd0a4f28419497f9722a3daafe3b4186f6b6457e090600090a35050565b828054620000f99062000191565b90600052602060002090601f0160209004810192826200011d576000855562000168565b82601f106200013857805160ff191683800117855562000168565b8280016001018555821562000168579182015b82811115620001685782518255916020019190600101906200014b565b50620001769291506200017a565b5090565b5b808211156200017657600081556001016200017b565b600181811c90821680620001a657607f821691505b60208210811415620001c857634e487b7160e01b600052602260045260246000fd5b50919050565b6120cc80620001de6000396000f3fe608060405234801561001057600080fd5b50600436106101775760003560e01c806370a08231116100d8578063a22cb4651161008c578063d204c45e11610066578063d204c45e146102e0578063e985e9c5146102f3578063f2fde38b1461032f57600080fd5b8063a22cb465146102a7578063b88d4fde146102ba578063c87b56dd146102cd57600080fd5b80638456cb59116100bd5780638456cb59146102815780638da5cb5b1461028957806395d89b411461029f57600080fd5b806370a0823114610258578063715018a61461027957600080fd5b80633f4ba83a1161012f57806342966c681161011457806342966c68146102275780635c975abb1461023a5780636352211e1461024557600080fd5b80633f4ba83a1461020c57806342842e0e1461021457600080fd5b8063081812fc11610160578063081812fc146101b9578063095ea7b3146101e457806323b872dd146101f957600080fd5b806301ffc9a71461017c57806306fdde03146101a4575b600080fd5b61018f61018a366004611c08565b610342565b60405190151581526020015b60405180910390f35b6101ac6103df565b60405161019b9190611c7d565b6101cc6101c7366004611c90565b610471565b6040516001600160a01b03909116815260200161019b565b6101f76101f2366004611cc5565b61050b565b005b6101f7610207366004611cef565b61063d565b6101f76106c5565b6101f7610222366004611cef565b61072f565b6101f7610235366004611c90565b61074a565b60075460ff1661018f565b6101cc610253366004611c90565b6107d1565b61026b610266366004611d2b565b61085c565b60405190815260200161019b565b6101f76108f6565b6101f7610960565b60075461010090046001600160a01b03166101cc565b6101ac6109c8565b6101f76102b5366004611d46565b6109d7565b6101f76102c8366004611e0e565b6109e6565b6101ac6102db366004611c90565b610a74565b6101f76102ee366004611e8a565b610a7f565b61018f610301366004611eec565b6001600160a01b03918216600090815260056020908152604080832093909416825291909152205460ff1690565b6101f761033d366004611d2b565b610b0e565b60006001600160e01b031982167f80ac58cd0000000000000000000000000000000000000000000000000000000014806103a557506001600160e01b031982167f5b5e139f00000000000000000000000000000000000000000000000000000000145b806103d957507f01ffc9a7000000000000000000000000000000000000000000000000000000006001600160e01b03198316145b92915050565b6060600080546103ee90611f1f565b80601f016020809104026020016040519081016040528092919081815260200182805461041a90611f1f565b80156104675780601f1061043c57610100808354040283529160200191610467565b820191906000526020600020905b81548152906001019060200180831161044a57829003601f168201915b5050505050905090565b6000818152600260205260408120546001600160a01b03166104ef5760405162461bcd60e51b815260206004820152602c60248201527f4552433732313a20617070726f76656420717565727920666f72206e6f6e657860448201526b34b9ba32b73a103a37b5b2b760a11b60648201526084015b60405180910390fd5b506000908152600460205260409020546001600160a01b031690565b6000610516826107d1565b9050806001600160a01b0316836001600160a01b031614156105a05760405162461bcd60e51b815260206004820152602160248201527f4552433732313a20617070726f76616c20746f2063757272656e74206f776e6560448201527f720000000000000000000000000000000000000000000000000000000000000060648201526084016104e6565b336001600160a01b03821614806105bc57506105bc8133610301565b61062e5760405162461bcd60e51b815260206004820152603860248201527f4552433732313a20617070726f76652063616c6c6572206973206e6f74206f7760448201527f6e6572206e6f7220617070726f76656420666f7220616c6c000000000000000060648201526084016104e6565b6106388383610bf3565b505050565b610648335b82610c6e565b6106ba5760405162461bcd60e51b815260206004820152603160248201527f4552433732313a207472616e736665722063616c6c6572206973206e6f74206f60448201527f776e6572206e6f7220617070726f76656400000000000000000000000000000060648201526084016104e6565b610638838383610d65565b6007546001600160a01b036101009091041633146107255760405162461bcd60e51b815260206004820181905260248201527f4f776e61626c653a2063616c6c6572206973206e6f7420746865206f776e657260448201526064016104e6565b61072d610f4a565b565b610638838383604051806020016040528060008152506109e6565b61075333610642565b6107c55760405162461bcd60e51b815260206004820152603060248201527f4552433732314275726e61626c653a2063616c6c6572206973206e6f74206f7760448201527f6e6572206e6f7220617070726f7665640000000000000000000000000000000060648201526084016104e6565b6107ce81610fe6565b50565b6000818152600260205260408120546001600160a01b0316806103d95760405162461bcd60e51b815260206004820152602960248201527f4552433732313a206f776e657220717565727920666f72206e6f6e657869737460448201527f656e7420746f6b656e000000000000000000000000000000000000000000000060648201526084016104e6565b60006001600160a01b0382166108da5760405162461bcd60e51b815260206004820152602a60248201527f4552433732313a2062616c616e636520717565727920666f7220746865207a6560448201527f726f20616464726573730000000000000000000000000000000000000000000060648201526084016104e6565b506001600160a01b031660009081526003602052604090205490565b6007546001600160a01b036101009091041633146109565760405162461bcd60e51b815260206004820181905260248201527f4f776e61626c653a2063616c6c6572206973206e6f7420746865206f776e657260448201526064016104e6565b61072d6000610fef565b6007546001600160a01b036101009091041633146109c05760405162461bcd60e51b815260206004820181905260248201527f4f776e61626c653a2063616c6c6572206973206e6f7420746865206f776e657260448201526064016104e6565b61072d611060565b6060600180546103ee90611f1f565b6109e23383836110e8565b5050565b6109f03383610c6e565b610a625760405162461bcd60e51b815260206004820152603160248201527f4552433732313a207472616e736665722063616c6c6572206973206e6f74206f60448201527f776e6572206e6f7220617070726f76656400000000000000000000000000000060648201526084016104e6565b610a6e848484846111b7565b50505050565b60606103d982611235565b6007546001600160a01b03610100909104163314610adf5760405162461bcd60e51b815260206004820181905260248201527f4f776e61626c653a2063616c6c6572206973206e6f7420746865206f776e657260448201526064016104e6565b6000610aea60085490565b9050610afa600880546001019055565b610b0483826113c0565b61063881836113da565b6007546001600160a01b03610100909104163314610b6e5760405162461bcd60e51b815260206004820181905260248201527f4f776e61626c653a2063616c6c6572206973206e6f7420746865206f776e657260448201526064016104e6565b6001600160a01b038116610bea5760405162461bcd60e51b815260206004820152602660248201527f4f776e61626c653a206e6577206f776e657220697320746865207a65726f206160448201527f646472657373000000000000000000000000000000000000000000000000000060648201526084016104e6565b6107ce81610fef565b6000818152600460205260409020805473ffffffffffffffffffffffffffffffffffffffff19166001600160a01b0384169081179091558190610c35826107d1565b6001600160a01b03167f8c5be1e5ebec7d5bd14f71427d1e84f3dd0314c0f7b2291e5b200ac8c7c3b92560405160405180910390a45050565b6000818152600260205260408120546001600160a01b0316610ce75760405162461bcd60e51b815260206004820152602c60248201527f4552433732313a206f70657261746f7220717565727920666f72206e6f6e657860448201526b34b9ba32b73a103a37b5b2b760a11b60648201526084016104e6565b6000610cf2836107d1565b9050806001600160a01b0316846001600160a01b03161480610d2d5750836001600160a01b0316610d2284610471565b6001600160a01b0316145b80610d5d57506001600160a01b0380821660009081526005602090815260408083209388168352929052205460ff165b949350505050565b826001600160a01b0316610d78826107d1565b6001600160a01b031614610df45760405162461bcd60e51b815260206004820152602560248201527f4552433732313a207472616e736665722066726f6d20696e636f72726563742060448201527f6f776e657200000000000000000000000000000000000000000000000000000060648201526084016104e6565b6001600160a01b038216610e6f5760405162461bcd60e51b8152602060048201526024808201527f4552433732313a207472616e7366657220746f20746865207a65726f2061646460448201527f726573730000000000000000000000000000000000000000000000000000000060648201526084016104e6565b610e7a838383611483565b610e85600082610bf3565b6001600160a01b0383166000908152600360205260408120805460019290610eae908490611f70565b90915550506001600160a01b0382166000908152600360205260408120805460019290610edc908490611f87565b9091555050600081815260026020526040808220805473ffffffffffffffffffffffffffffffffffffffff19166001600160a01b0386811691821790925591518493918716917fddf252ad1be2c89b69c2b068fc378daa952ba7f163c4a11628f55a4df523b3ef91a4505050565b60075460ff16610f9c5760405162461bcd60e51b815260206004820152601460248201527f5061757361626c653a206e6f742070617573656400000000000000000000000060448201526064016104e6565b6007805460ff191690557f5db9ee0a495bf2e6ff9c91a7834c1ba4fdd244a5e8aa4e537bd38aeae4b073aa335b6040516001600160a01b03909116815260200160405180910390a1565b6107ce816114d6565b600780546001600160a01b038381166101008181027fffffffffffffffffffffff0000000000000000000000000000000000000000ff85161790945560405193909204169182907f8be0079c531659141344cd1fd0a4f28419497f9722a3daafe3b4186f6b6457e090600090a35050565b60075460ff16156110b35760405162461bcd60e51b815260206004820152601060248201527f5061757361626c653a207061757365640000000000000000000000000000000060448201526064016104e6565b6007805460ff191660011790557f62e78cea01bee320cd4e420270b5ea74000d11b0c9f74754ebdbfc544b05a258610fc93390565b816001600160a01b0316836001600160a01b0316141561114a5760405162461bcd60e51b815260206004820152601960248201527f4552433732313a20617070726f766520746f2063616c6c65720000000000000060448201526064016104e6565b6001600160a01b03838116600081815260056020908152604080832094871680845294825291829020805460ff191686151590811790915591519182527f17307eab39ab6107e8899845ad3d59bd9653f200f220920489ca2b5937696c31910160405180910390a3505050565b6111c2848484610d65565b6111ce84848484611516565b610a6e5760405162461bcd60e51b815260206004820152603260248201527f4552433732313a207472616e7366657220746f206e6f6e20455243373231526560448201527131b2b4bb32b91034b6b83632b6b2b73a32b960711b60648201526084016104e6565b6000818152600260205260409020546060906001600160a01b03166112c25760405162461bcd60e51b815260206004820152603160248201527f45524337323155524953746f726167653a2055524920717565727920666f722060448201527f6e6f6e6578697374656e7420746f6b656e00000000000000000000000000000060648201526084016104e6565b600082815260066020526040812080546112db90611f1f565b80601f016020809104026020016040519081016040528092919081815260200182805461130790611f1f565b80156113545780601f1061132957610100808354040283529160200191611354565b820191906000526020600020905b81548152906001019060200180831161133757829003601f168201915b50505050509050600061137260408051602081019091526000815290565b9050805160001415611385575092915050565b8151156113b757808260405160200161139f929190611f9f565b60405160208183030381529060405292505050919050565b610d5d8461166e565b6109e2828260405180602001604052806000815250611764565b6000828152600260205260409020546001600160a01b03166114645760405162461bcd60e51b815260206004820152602e60248201527f45524337323155524953746f726167653a2055524920736574206f66206e6f6e60448201527f6578697374656e7420746f6b656e00000000000000000000000000000000000060648201526084016104e6565b6000828152600660209081526040909120825161063892840190611b23565b60075460ff16156106385760405162461bcd60e51b815260206004820152601060248201527f5061757361626c653a207061757365640000000000000000000000000000000060448201526064016104e6565b6114df816117e2565b600081815260066020526040902080546114f890611f1f565b1590506107ce5760008181526006602052604081206107ce91611ba7565b60006001600160a01b0384163b1561166357604051630a85bd0160e11b81526001600160a01b0385169063150b7a029061155a903390899088908890600401611fce565b602060405180830381600087803b15801561157457600080fd5b505af19250505080156115a4575060408051601f3d908101601f191682019092526115a19181019061200a565b60015b611649573d8080156115d2576040519150601f19603f3d011682016040523d82523d6000602084013e6115d7565b606091505b5080516116415760405162461bcd60e51b815260206004820152603260248201527f4552433732313a207472616e7366657220746f206e6f6e20455243373231526560448201527131b2b4bb32b91034b6b83632b6b2b73a32b960711b60648201526084016104e6565b805181602001fd5b6001600160e01b031916630a85bd0160e11b149050610d5d565b506001949350505050565b6000818152600260205260409020546060906001600160a01b03166116fb5760405162461bcd60e51b815260206004820152602f60248201527f4552433732314d657461646174613a2055524920717565727920666f72206e6f60448201527f6e6578697374656e7420746f6b656e000000000000000000000000000000000060648201526084016104e6565b600061171260408051602081019091526000815290565b90506000815111611732576040518060200160405280600081525061175d565b8061173c84611896565b60405160200161174d929190611f9f565b6040516020818303038152906040525b9392505050565b61176e83836119c8565b61177b6000848484611516565b6106385760405162461bcd60e51b815260206004820152603260248201527f4552433732313a207472616e7366657220746f206e6f6e20455243373231526560448201527131b2b4bb32b91034b6b83632b6b2b73a32b960711b60648201526084016104e6565b60006117ed826107d1565b90506117fb81600084611483565b611806600083610bf3565b6001600160a01b038116600090815260036020526040812080546001929061182f908490611f70565b9091555050600082815260026020526040808220805473ffffffffffffffffffffffffffffffffffffffff19169055518391906001600160a01b038416907fddf252ad1be2c89b69c2b068fc378daa952ba7f163c4a11628f55a4df523b3ef908390a45050565b6060816118d657505060408051808201909152600181527f3000000000000000000000000000000000000000000000000000000000000000602082015290565b8160005b811561190057806118ea81612027565b91506118f99050600a83612058565b91506118da565b60008167ffffffffffffffff81111561191b5761191b611d82565b6040519080825280601f01601f191660200182016040528015611945576020820181803683370190505b5090505b8415610d5d5761195a600183611f70565b9150611967600a8661206c565b611972906030611f87565b60f81b81838151811061198757611987612080565b60200101907effffffffffffffffffffffffffffffffffffffffffffffffffffffffffffff1916908160001a9053506119c1600a86612058565b9450611949565b6001600160a01b038216611a1e5760405162461bcd60e51b815260206004820181905260248201527f4552433732313a206d696e7420746f20746865207a65726f206164647265737360448201526064016104e6565b6000818152600260205260409020546001600160a01b031615611a835760405162461bcd60e51b815260206004820152601c60248201527f4552433732313a20746f6b656e20616c7265616479206d696e7465640000000060448201526064016104e6565b611a8f60008383611483565b6001600160a01b0382166000908152600360205260408120805460019290611ab8908490611f87565b9091555050600081815260026020526040808220805473ffffffffffffffffffffffffffffffffffffffff19166001600160a01b03861690811790915590518392907fddf252ad1be2c89b69c2b068fc378daa952ba7f163c4a11628f55a4df523b3ef908290a45050565b828054611b2f90611f1f565b90600052602060002090601f016020900481019282611b515760008555611b97565b82601f10611b6a57805160ff1916838001178555611b97565b82800160010185558215611b97579182015b82811115611b97578251825591602001919060010190611b7c565b50611ba3929150611bdd565b5090565b508054611bb390611f1f565b6000825580601f10611bc3575050565b601f0160209004906000526020600020908101906107ce91905b5b80821115611ba35760008155600101611bde565b6001600160e01b0319811681146107ce57600080fd5b600060208284031215611c1a57600080fd5b813561175d81611bf2565b60005b83811015611c40578181015183820152602001611c28565b83811115610a6e5750506000910152565b60008151808452611c69816020860160208601611c25565b601f01601f19169290920160200192915050565b60208152600061175d6020830184611c51565b600060208284031215611ca257600080fd5b5035919050565b80356001600160a01b0381168114611cc057600080fd5b919050565b60008060408385031215611cd857600080fd5b611ce183611ca9565b946020939093013593505050565b600080600060608486031215611d0457600080fd5b611d0d84611ca9565b9250611d1b60208501611ca9565b9150604084013590509250925092565b600060208284031215611d3d57600080fd5b61175d82611ca9565b60008060408385031215611d5957600080fd5b611d6283611ca9565b915060208301358015158114611d7757600080fd5b809150509250929050565b634e487b7160e01b600052604160045260246000fd5b600067ffffffffffffffff80841115611db357611db3611d82565b604051601f8501601f19908116603f01168101908282118183101715611ddb57611ddb611d82565b81604052809350858152868686011115611df457600080fd5b858560208301376000602087830101525050509392505050565b60008060008060808587031215611e2457600080fd5b611e2d85611ca9565b9350611e3b60208601611ca9565b925060408501359150606085013567ffffffffffffffff811115611e5e57600080fd5b8501601f81018713611e6f57600080fd5b611e7e87823560208401611d98565b91505092959194509250565b60008060408385031215611e9d57600080fd5b611ea683611ca9565b9150602083013567ffffffffffffffff811115611ec257600080fd5b8301601f81018513611ed357600080fd5b611ee285823560208401611d98565b9150509250929050565b60008060408385031215611eff57600080fd5b611f0883611ca9565b9150611f1660208401611ca9565b90509250929050565b600181811c90821680611f3357607f821691505b60208210811415611f5457634e487b7160e01b600052602260045260246000fd5b50919050565b634e487b7160e01b600052601160045260246000fd5b600082821015611f8257611f82611f5a565b500390565b60008219821115611f9a57611f9a611f5a565b500190565b60008351611fb1818460208801611c25565b835190830190611fc5818360208801611c25565b01949350505050565b60006001600160a01b038087168352808616602084015250836040830152608060608301526120006080830184611c51565b9695505050505050565b60006020828403121561201c57600080fd5b815161175d81611bf2565b600060001982141561203b5761203b611f5a565b5060010190565b634e487b7160e01b600052601260045260246000fd5b60008261206757612067612042565b500490565b60008261207b5761207b612042565b500690565b634e487b7160e01b600052603260045260246000fdfea264697066735822122035a8abec76f89e924ce3e803ef8c40a02c38dd359186f08b2b12a0c209d433b464736f6c63430008090033",
  "linkReferences": {},
  "deployedLinkReferences": {}
}